:0100000001FE
:0100010003FB
:0100020005F8
:0100030007F5
:0100040002F9
:0100050003F7
:0100060004F5
:0100070005F3
:0100080006F1
:0100090007EF
:01000A0008ED
:01000B0009EB
:01000C000AE9
:01000D000BE7
:01000E000CE5
:01000F000DE3
:0100100008E7
:0100110006E8
:0100120004E9
:0100130002EA
:0100140000EB
:010015000EDC
:010016000CDD
:010017000ADE
:0100180003E4
:0100190004E2
:01001A0005E0
:01001B0006DE
:01001C0007DC
:01001D0008DA
:01001E0009D8
:01001F000AD6
:010020000BD4
:010021000CD2
:010022000DD0
:010023000ECE
:010024000FCC
:0100250000DA
:0100260001D8
:0100270002D6
:0100280003D4
:0100290004D2
:01002A0005D0
:01002B0006CE
:01002C0007CC
:01002D0008CA
:01002E0009C8
:01002F000AC6
:010030000BC4
:010031000CC2
:010032000DC0
:010033000EBE
:010034000FBC
:0100350000CA
:0100360001C8
:0100370002C6
:0100380003C4
:0100390004C2
:01003A0005C0
:01003B0006BE
:01003C0007BC
:01003D0008BA
:01003E0009B8
:01003F000AB6
:010040000BB4
:010041000CB2
:010042000DB0
:010043000EAE
:010044000FAC
:0100450000BA
:0100460001B8
:0100470002B6
:0100480003B4
:0100490004B2
:01004A0005B0
:01004B0006AE
:01004C0007AC
:01004D0008AA
:01004E0009A8
:01004F000AA6
:010050000BA4
:010051000CA2
:010052000DA0
:010053000E9E
:010054000F9C
:0100550000AA
:0100560001A8
:0100570002A6
:0100580003A4
:0100590004A2
:01005A0005A0
:01005B00069E
:01005C00079C
:01005D00089A
:01005E000998
:01005F000A96
:010060000B94
:010061000C92
:010062000D90
:010063000E8E
:010064000F8C
:01006500009A
:010066000198
:010067000296
:010068000394
:010069000492
:01006A000590
:01006B00068E
:01006C00078C
:01006D00088A
:01006E000988
:01006F000A86
:010070000B84
:010071000C82
:010072000D80
:010073000E7E
:010074000F7C
:01007500008A
:010076000188
:010077000286
:010078000384
:010079000482
:01007A000580
:01007B00067E
:01007C00077C
:01007D00087A
:01007E000978
:01007F000A76
:00000001FF
